:020000040800F2
:1000000068080024AD0200089B5B00086F580008D8
:10001000995B0008DD030008496A00080000000041
:10002000000000000000000000000000335F000836
:100030003108000800000000A15B0008355F0008DF
:10004000C7020008C7020008C7020008C70200086C
:10005000C7020008C7020008C7020008C70200085C
:10006000C7020008C7020008C7020008E103000831
:10007000ED030008C7020008C7020008C702000815
:10008000C7020008C7020008C7020008C70200082C
:1000900059080008C7020008C7020008C702000884
:1000A000C7020008C7020008C7020008C70200080C
:1000B000C7020008C1600008C7020008C7020008A4
:1000C000C7020008C7020008C7020008C7020008EC
:1000D000C7020008C7020008C7020008C7020008DC
:1000E000C7020008C702000800000000C70200089D
:1000F000C7020008C7020008C7020008C7020008BC
:10010000C7020008C7020008C7020008C7020008AB
:10011000C7020008C7020008C7020008C70200089B
:10012000C7020008C7020008C7020008C70200088B
:10013000C7020008C7020008C7020008C70200087B
:1001400000000000000000000000000000000000AF
:10015000C7020008C7020008C7020008C70200085B
:10016000C7020008C7020008C7020008C70200084B
:10017000C7020008C7020008C7020008000000000C
:10018000C7020008C702000801620008C702000891
:10019000C7020008C7020008C7020008C70200081B
:1001A000C7020008C7020008C7020008C70200080B
:1001B000C7020008C7020008C7020008C7020008FB
:1001C000C7020008C7020008C7020008C7020008EB
:1001D000C7020008C7020008C7020008C7020008DB
:1001E000C7020008C7020008C7020008C7020008CB
:1001F000C7020008C7020008C7020008C7020008BB
:10020000C7020008C7020008C7020008C7020008AA
:10021000C7020008C7020008C7020008C70200089A
:10022000C7020008C7020008C7020008000000005B
:10023000C7020008C702000800000000C70200084B
:10024000C7020008C7020008C7020008C70200086A
:10025000C7020008C7020008C7020008C70200085A
:10026000C7020008C7020008C7020008C70200084A
:10027000C7020008C7020008C7020008000000000B
:10028000C7020008C7020008C702000800000000FB
:1002900000000000C7020008DFF80CD000F08CF866
:1002A00000480047856D000868080024064880471C
:1002B00006480047FEE7FEE7FEE7FEE7FEE7FEE74B
:1002C000FEE7FEE7FEE7FEE7E55F000899020008AB
:1002D0002DE9F05F0546002092469B46884606467B
:1002E000814640241BE0284641464746224600F00E
:1002F00053F853465A46C01A914110D31146184636
:10030000224600F03AF82D1A67EB01084F462246C4
:100310000120002100F031F817EB00094E41201EAA
:10032000A4F10104DFDC484631462A464346BDE8D5
:10033000F09F40EA01039B0703D009E008C9121FA0
:1003400008C0042AFAD203E011F8013B00F8013B8F
:10035000521EF9D27047D2B201E000F8012B491EBB
:10036000FBD270470022F6E710B513460A46044652
:100370001946FFF7F0FF204610BD202A04DB203A83
:1003800000FA02F1002070479140C2F1200320FAE8
:1003900003F3194390407047202A04DB203A21FAE6
:1003A00002F00021704721FA02F3D040C2F120028E
:1003B0009140084319467047064C074D06E0E06837
:1003C00040F0010394E8070098471034AC42F6D39C
:1003D000FFF766FF7470000894700008FEE70000E5
:1003E000014800F0EFBF0000AC020024014800F01B
:1003F000E9BF000024030024294A016891423AD051
:10040000274A1832914236D0254A3032914232D0B2
:10041000234A483291422ED0214A603291422AD05A
:100420001F4A7832914226D01D4A9032914222D002
:100430001B4AA83291421ED01A4A91421BD0194A37
:100440001832914217D0174A3032914213D0154AD0
:10045000483291420FD0134A603291420BD0114A78
:100460007832914207D00F4A9032914203D00D4A20
:10047000A832914211D1CAB21823103AB2FBF3F25A
:100480006FF30901032A02F00703074AD25CC26531
:1004900000D9091D81650846704721F0FF01F9E781
:1004A0001000024010040240D86F000830B5224A04
:1004B000012301689142CAB21BD01F4C1434A142DF
:1004C00017D01D4C2834A14213D01B4C3C34A14200
:1004D0000FD0194C5034A1420BD0174C6434A142B8
:1004E00007D0154C7834A14203D0134C8C34A14270
:1004F0000CD11421114C083AB2FBF1F10F4A8032B1
:1005000001F01F0504EB8101AB4010E00C4D1824F5
:10051000103A0D44B2FBF4F1A82D00D80831094A75
:1005200001F01F0402EB8101064AA34080326030D3
:1005300080E80E0030BD00000854025800580258F0
:10054000F0FBFDBF0008024010B50279531E072BD7
:100550002DD8174C0168A1421BD0154C1434A14270
:1005600017D0134C2834A14213D0114C3C34A14273
:100570000FD00F4C5034A1420BD00D4C6434A1422B
:1005800007D00B4C7834A14203D0094C8C34A142E3
:1005900003D10849074C443102E00749064C443175
:1005A00004EB8202C0E91B2101219940416710BD83
:1005B00008540258FC580258FC08024010B58369E0
:1005C0004FF0C074826A0146002053B1B3F5005F5A
:1005D00015D072B1012A0CD0022A0AD0032A09D1FF
:1005E00004E01AB1012A06D0022A03D1C96AC9015E
:1005F00000D5012010BDC96AA142FAD010BD002A61
:10060000F7D0012AF2D0022AF3D0032AF3D010BD8A
:100610002DE9F04F804E804FDFF8FC911836DFF85F
:10062000F8A148370468856D0AF1300ADFF8ECB1AB
:100630004C45DFF8ECC1DFF8ECE16DD0B4426BD093
:10064000544569D0BC4267D0DFF8D081A8F11808C2
:10065000444561D05C455FD064455DD074455BD056
:10066000DFF8C481444557D0DFF8BC8108F1180891
:10067000444551D0DFF8B08108F1300844454BD0F3
:10068000DFF8A48108F14808444545D0DFF8988197
:1006900008F1600844453FD0DFF88C8108F1780804
:1006A000444539D0DFF8808108F19008444533D0C3
:1006B000DFF8748108F1A80844452DD0DFF86C817B
:1006C000444529D0DFF8648108F11408444523D05B
:1006D000DFF8588108F1280844451DD0DFF84C8127
:1006E00008F13C08444517D0DFF8408108F1500874
:1006F000444511D0DFF8348108F1640844450BD03B
:10070000DFF8288108F17808444505D0DFF81C811E
:1007100008F18C08444509D1D0E91948C4F804808F
:10072000C46E1CB1D0E91C48C4F8048004684C4570
:100730002ED0B4422CD054452AD0BC4228D0374EBB
:10074000183EB44224D05C4522D0644520D0744584
:100750001ED0354EB4421BD0334E1836B44217D09B
:10076000314E3036B44213D02F4E4836B4420FD0FB
:100770002D4E6036B4420BD02B4E7836B44207D0A3
:10078000294E9036B44203D0274EA836B44215D134
:1007900090F85C603F2406F01F06B440AC6004682B
:1007A000256825F4802525602EE09A600068C160E8
:1007B000BDE8F08F99600068C260F9E71B4EB44253
:1007C0001BD01A4E1436B44217D0184E2836B442F5
:1007D00013D0164E3C36B4420FD0144E5036B442AD
:1007E0000BD0124E6436B44207D0104E7836B44265
:1007F00003D00E4E8C36B442DAD190F85C600124FE
:1008000006F01F06B4406C60046863608368402B88
:100810000368CFD1C9E70000100002408800024001
:10082000A0000240B80002401004024008540258E0
:100830007047000005A006F009F9064C0421204687
:1008400002F07AFA642001F061FCF7E76572726FDA
:100850007221210000000258014801F01BBE000077
:100860007C000024F0B503684FF6FC716D4C426BC0
:10087000D3F884508D4345EA8205C3F88450036859
:1008800053F8845F068F25F47F0545EA06451D6011
:10089000836B654D9F180268D2F888308B4343EA1A
:1008A0008703C2F88830026852F8883F868F23F4A5
:1008B000FE0343EA06431360066856F8A03FC26B86
:1008C0008B4307EB420243EA82033360076857F821
:1008D000A03FB0F8406023F4FE0343EA06433B60C8
:1008E000D0E9103603FB06220368D3F8B0608E43CC
:1008F00046EA8206C3F8B0600368B0F84860D3F8EF
:10090000B07027F4FE0747EA0646C3F8B060D0E9A6
:100910001267036806FB0722D3F8AC608E4346EAF1
:100920008206C3F8AC60D0E91467036806FB0722AF
:10093000D3F8F0608E4346EA8206C3F8F06003689D
:10094000B0F85860D3F8F07027F47C1747EA0646F1
:10095000C3F8F0600368876D53F8C06F02EB47027D
:100960008E4346EA820119600168B0F85C20D1F834
:10097000C03023F47C1343EA0242C1F8C02001686E
:1009800090F86020D1F8C03023F07C5343EA026233
:10099000C1F8C020416B04EB8101C166826B01EBA1
:1009A00082020267C36B02EBC3024267D0E91034D4
:1009B000634302EB83028267D0E91234634302EBA4
:1009C0008302C267D0E91434634302EB8302C0F8A8
:1009D0008020836D02EBC303C0F88430C46D826E47
:1009E000544303EB8403C0F88830046E544303EB94
:1009F0008402C0F89020AA420AD9D0F89C20032192
:100A000042F02002C0F89C2080F898100120F0BD30
:100A1000002200E004C1D0F890308B42FAD80020C8
:100A2000F0BD000000AC0040FCD30040F0B58E6883
:100A30000C69D1E9005744EA0604DFB145F080456E
:100A40002C43866ED1E906C54F695E4391F820308C
:100A500045EA0C05D0F884E00020D1F80CC047EA44
:100A600003630D4F1D430EEB860345EA0C05E3E8D7
:100A700002450AE044EA8544E3E71418155C001DCA
:100A8000D4F8014045EA042410C3CC6807EB1444B1
:100A900024788442F1D8F0BDE06F000801220248BA
:100AA000082102F051B9000000100258002202484B
:100AB000082102F049B9000000100258F8B50D46AF
:100AC00014460FA1020C030A096800918DF8012059
:100AD0008DF802308DF80300FFF7E8FF4FF0FF3686
:100AE000084804223346694603F04EFF0548334662
:100AF0002246294603F062FEFFF7D0FFF8BD000052
:100B0000030000004401002401B5FFF7CFFF0548B2
:100B100001224FF0FF33694603F036FFFFF7BEFFB7
:100B200008BD000044010024F8B50D46144610A18C
:100B3000020C030A096800918DF801208DF802303B
:100B40008DF803000620FFF7DFFFFFF7AFFF4FF040
:100B5000FF36084804223346694603F015FF05486E
:100B600033462246294603F00FFFFFF797FFF8BDF3
:100B700002000000440100242DE9F04704464079BA
:100B800017460E4601280BD04FF0010A84F805A045
:100B900002212171306807F01005042803D050E0CD
:100BA0000220BDE8F08702F0DBF880464FF0030931
:100BB0005FB129E002F0D4F8A0EB0800012805D9C4
:100BC0002068406B384201D016E0434F2068406BEC
:100BD0003842EFD1012001F099FA2168B069086428
:100BE0001CE000BF02F0BCF8A0EB080001280BD904
:100BF0002068406B002807DA216941F00801216173
:100C000084F804900320CCE72068406B0028E9DBDF
:100C1000012001F07BFA2168B069486440F2FF329C
:100C20002068F369AA40816CAB4091431943816409
:100C30002168FF22336AAA40C86CAB409043184336
:100C4000C8643069012808D122681F237069916B3C
:100C5000AB40A84099430843906323680721F0689C
:100C6000DA6BA940012822EA010203D0022831D020
:100C7000B06870B35FF00001D6F8088030684FF4B8
:100C8000804C40F6FE7740EA080008430CFA05FC69
:100C9000AF40A840C02110435246D8634FF000082F
:100CA0002068A940036823EA0C030360D4F800C05D
:100CB0007068DCF80030A840BB431843CCF8000053
:100CC000206803688B4303602271002084F805804C
:100CD00067E7FFE70121CFE70080002070B504003F
:100CE00003D02079002510B105E0012070BD204619
:100CF000657100F007F80221217101202561207142
:100D0000002070BD10B586B0044614216846FFF778
:100D100029FB1149206888421BD11048016841F025
:100D200000510160006800F0005005900B48083841
:100D3000016841F00101016000680321002200F018
:100D40000100059010208DE807000548694601F074
:100D5000DDFE06B010BD000000740040E8440258FB
:100D60000000025808B5002901680091006810448D
:100D700004D0143000900360002008BD0830F9E76B
:100D8000F0B54279012A1DD001224271022303717C
:100D9000066801F0100402FA04F537682F43376043
:100DA0000029016810D00D68A34005F478149C4216
:100DB00003D14B6843F002034B6000210271417183
:100DC0000846F0BD0220F0BD0B68C3F34403012BBD
:100DD000F3D14B6843F00103EEE700002DE9F84F33
:100DE000044601F0BDFF00903CB194F835000228A4
:100DF00006D0802161650020E4E00120BDE8F88F85
:100E0000C74DC74EC649183520683036DFF8148301
:100E1000DFF814938842DFF814A3DFF814B32ED060
:100E2000A8422CD0B0422AD0404528D0484526D0F0
:100E3000504524D0584522D0BD4A183290421ED089
:100E4000BC4A90421BD0BB4A1832904217D0B94AD4
:100E50003032904213D0B74A483290420FD0B54A50
:100E6000603290420BD0B34A7832904207D0B14AF8
:100E70009032904203D0AF4AA832904209D1026822
:100E800022F01E0202602068426922F08002426164
:100E900003E0026822F00E02026027688F423846A3
:100EA0004DD0A8424BD0B04249D0404547D04845EC
:100EB00045D0504543D0584541D09D4A18329042C4
:100EC0003DD09C4A90423AD09A4A1832904236D04D
:100ED000984A3032904232D0964A483290422ED0D0
:100EE000944A603290422AD0924A7832904226D078
:100EF000904A9032904222D08E4AA83290421ED020
:100F00008D4A90421BD08C4A1432904217D08A4AA4
:100F10002832904213D0884A3C3290420FD0864A01
:100F2000503290420BD0844A6432904207D0824AB9
:100F30007832904203D0804A8C32974204D1206E9E
:100F4000026822F48072026075492068884228D0C5
:100F5000A84226D0B04224D0404522D0484520D0D7
:100F600050451ED058451CD071491831884218D0C0
:100F70007049884215D06F491831884211D06D49A7
:100F8000303188420DD06B494831884209D06949D7
:100F90006031884205D067497831884201D065497F
:100FA0009031016821F0010101600EE001F0D8FEEE
:100FB0000099401A052808D92022626503210020E3
:100FC00084F8351084F8340017E73868C007EDD18D
:100FD000534A0121206890422ED0A8422CD0B04222
:100FE0002AD0404528D0484526D0504524D05845E1
:100FF00022D04F4B183398421ED04E4B98421BD0F4
:101000004C4B1833984217D04A4B3033984213D088
:10101000484B483398420FD0464B603398420BD030
:10102000444B7833984207D0424B9033984203D0D8
:10103000404BA833984208D194F85C703F23A06DD0
:1010400007F01F07BB40836007E094F85C30A06D99
:1010500003F01F0301FA03F34360206890424DD070
:10106000A8424BD0B04249D0404547D0484545D032
:10107000504543D0584541D02D4A183290423DD07A
:101080002C4A90423AD02B4A1832904236D0294A04
:101090003032904232D0274A483290422ED0254AF0
:1010A000603290422AD0234A7832904226D0214A98
:1010B0009032904222D01F4AA83290421ED01E4A3F
:1010C00090421BD01C4A1432904217D01A4A283240
:1010D000904213D0184A3C3290420FD0164A5032F8
:1010E00090420BD0144A6432904207D0124A7832B0
:1010F000904203D0104A8C3290420BD1D4E91902AD
:101100004260E06E30B1026822F480720260D4E97D
:101110001C024260002084F8351084F834006DE62B
:101120001000024058000240700002408800024057
:10113000A000024010040240085402582DE9F05F5C
:1011400028B190F83510022904D080214165012092
:10115000BDE8F09F904C904B0168183C18338E4AC4
:10116000DFF83C92A1428D4CDFF838E28E4FDFF879
:101170003CB2DFF83CA28F4D8F4E31D091422FD040
:1011800099422DD0A1422BD0494529D0714527D075
:10119000B94225D0DFF810C20CF1180C61451FD000
:1011A000DFF808C2ACF1600C614519D0DFF8FCC172
:1011B000ACF1480C614513D0DFF8F0C1ACF1300C54
:1011C00061450DD0DFF8E4C1ACF1180C614507D0E2
:1011D000594505D0514503D0A94201D0B1422CD187
:1011E000DFF8B4C14FF0040880F83580ACF1180C7A
:1011F00061451DD091421BD0994219D0A14217D010
:10120000494515D0714513D0B94211D06648183000
:1012100081420DD065486038814209D06348483822
:10122000814205D061483038814201D05F4818388A
:10123000086820F001000860ABE0D1F800C02CF095
:101240000E08DFF854C1C1F80080ACF1180C016839
:10125000614527D0914225D0994223D0A14221D087
:1012600049451FD071451DD0B9421BD0DFF838C1A8
:101270000CF1180C614515D0DFF830C1ACF1600CF1
:1012800061450FD0DFF824C1ACF1480C614509D0AD
:10129000DFF818C1ACF1300C614503D0DFF80CC1A8
:1012A000ACF1180CD1F800C02CF0010CC1F800C052
:1012B000DFF8E4804FF0010C0168A8F118084145FF
:1012C00046D0914244D0994242D0A14240D04945B3
:1012D0003ED071453CD0B9423AD0334A183291429F
:1012E00036D0324A603A914232D0304A483A91423E
:1012F0002ED02E4A303A91422AD02C4A183A9142A6
:1013000026D0594524D0514522D0A94220D0B142FF
:101310001ED02A4A91421BD0284A1432914217D03B
:10132000264A2832914213D0244A3C3291420FD0AF
:10133000224A503291420BD0204A6432914207D067
:101340001E4A7832914203D01C4A8C32914218D105
:10135000016E0A6822F480720A6090F85C20816D48
:1013600002F01F020CFA02F24A60D0E919124A6038
:10137000C16E31B10A6822F480720A60D0E91C1291
:101380004A600022016D80F835C080F8342001B138
:1013900088470020DCE60000280002405800024098
:1013A0007000024088000240A00002407004024029
:1013B00088040240A0040240B804024008540258C5
:1013C000406D70472DE9FC5F0446F74E0020DFF8C2
:1013D000D88300904FF41652F44808F11808A56D10
:1013E000DFF8C493DFF8C0A3016809F13009206871
:1013F0000AF1480AB1FBF2F1B04201912F68D5F829
:1014000000C0DFF8ACB335D04146884232D0484501
:1014100030D050452ED058452CD0E549183188425F
:1014200028D0E3493031884224D0E149483188420C
:1014300020D0E04988421DD0DE491831884219D0B9
:10144000DC493031884215D0DA494831884211D020
:10145000DFF860E30EF1600E70450BD0D54A7832AC
:10146000904207D0D34B9033984203D0D149A83152
:1014700088427DD194F85C20082102F01F0201FA15
:1014800002F23A424AD0B04232D0404530D04845CC
:101490002ED050452CD058452AD0C54A18329042FB
:1014A00026D0C34A3032904222D0C14A48329042BC
:1014B0001ED0C04A90421BD0BE4A1832904217D06C
:1014C000BC4A3032904213D0BA4A483290420FD0D0
:1014D000B84A603290420BD0B64A7832904207D078
:1014E000B44A9032904203D0B24AA832904203D11B
:1014F000026802F0040202E0026802F008026AB127
:10150000026822F00402026094F85C0000F01F0000
:101510008140A960606D40F00100606594F85C0056
:10152000012100F01F008140394240D02068B042C4
:1015300034D0404532D0484530D050452ED0584563
:101540002CD09B4A1832904228D0994A303290428F
:1015500024D0974A4832904220D0964A90421DD0DB
:10156000944A1832904219D0924A3032904200E0A8
:10157000AFE113D08F4A483290420FD08D4A60328B
:1015800090420BD08B4A7832904207D0894A9032F1
:10159000904203D0874AA83290427DD1406910F032
:1015A000800F04D0A960606D40F00200606594F87F
:1015B0005C00042100F01F00814039423ED02068C9
:1015C000B04232D0404530D048452ED050452CD086
:1015D00058452AD0764A1832904226D0744A303282
:1015E000904222D0724A483290421ED0714A9042B4
:1015F0001BD0704A1832904217D06E4A3032904257
:1016000013D06C4A483290420FD06A4A60329042FE
:101610000BD0684A7832904207D0664A90329042A6
:1016200003D0644AA83290424ED1006810F0020FF5
:1016300004D0A960606D40F00400606594F85C001F
:10164000102100F01F008140394258D02068B0427C
:1016500034D0404532D0484530D050452ED0584542
:101660002CD0534A1832904228D0514A30329042FE
:1016700024D04F4A4832904220D04E4A90421DD04A
:101680004C4A1832904219D04A4A3032904215D012
:10169000484A4832904200E014E00FD0454A603298
:1016A00090420BD0434A7832904207D0414A903260
:1016B000904203D03F4AA832904207D1006800F020
:1016C000080006E0006872E70068B7E7006800F00D
:1016D0000400A0B1A96020680168490304D500682E
:1016E000000308D5A16C07E00168C90503D40168AF
:1016F00021F008010160216C09B12046884794F867
:101700005C00202100F01F008140394279D0206820
:10171000B04232D0404530D048452ED050452CD034
:1017200058452AD0224A1832904226D0204A3032D8
:10173000904222D01E4A483290421ED01D4A90420A
:101740001BD01C4A1832904217D01A4A30329042AD
:1017500013D0184A483290420FD0164A6032904255
:101760000BD0144A7832904207D0124A90329042FD
:1017700003D0104AA832904203D1006800F0100054
:1017800002E0006800F00200B0B3A96094F83500F0
:101790000428206801680FD049037ED50068000343
:1017A0002BD4616C2AE000001000024018000024D5
:1017B000700002401004024021F016010160206810
:1017C000416921F080014161206C08B9A06C20B111
:1017D0002068016821F00801016094F85C303F2125
:1017E000012003F01F0300229940A96084F835000E
:1017F00084F83420216D65E003E0E16B09B12046F7
:101800008847606D00287DD0606DC00759D0206882
:10181000042184F83510B0422BD0404529D04845EA
:1018200027D0504525D0584523D09D49884220D007
:101830009B49183188421CD099493031884218D0D0
:101840009849884215D097491831884211D0954956
:10185000303188420DD093494831884209D09149AE
:101860006031884205D08F497831884201D08D4956
:101870009031016821F00101016020680099019A0E
:10188000491C0091914202D80168C907F6D100684D
:10189000C00710D003200FE0FFE70168C905ACD4F2
:1018A00003680121002223F01003036084F835103F
:1018B00084F83420A1E7012084F83500002084F862
:1018C0003400E16C00291DD002B02046BDE8F05F75
:1018D0000847754988421DD073491431884219D090
:1018E00071492831884215D06F493C31884211D066
:1018F0006D49503188420DD06B496431884209D01E
:10190000694900E084E07831884203D066498C312F
:1019100088427DD194F85C800427016808F01F0894
:1019200007FA08F717EA0C0F009746D04F0744D57F
:1019300000980F04686003D5C8033CD4A16CC1E7CC
:10194000880638D42068B0422DD055496039884285
:1019500029D0484527D0504525D0584523D0504957
:10196000884220D04E49183188421CD04C49303131
:10197000884218D04B49884215D04A4918318842CC
:1019800011D04849303188420DD04649483188420B
:1019900009D0704507D0904205D0984203D0414904
:1019A000A831884203D1016821F0080102E00168F2
:1019B00021F004010160216C84E7022707FA08F78F
:1019C00017EA0C0F00974ED08F074CD500980F04E4
:1019D000686003D5C80344D4616C73E7880640D4BB
:1019E0002068B0422FD02E49603988422BD048451C
:1019F00029D0504527D0584525D02949884222D0A2
:101A00002749183188421ED025493031884200E0EC
:101A100044E018D02349884215D022491831884221
:101A200011D02049303188420DD01E4948318842BA
:101A300009D0704507D0904205D0984203D019498B
:101A4000A831884203D1016821F0140102E0016845
:101A500021F00A010160012184F83510002084F88A
:101A60003400E16B2EE7082202FA08F212EA0C0FAA
:101A700014D0090712D5016821F00E01016094F815
:101A80005C100120002201F01F0100FA01F16960E1
:101A9000606584F8350084F8342012E7BDE8FC9FC7
:101AA0008800024010040240085402582DE9F05FFB
:101AB000044601F055F9002C07467DD0E34E022183
:101AC00020684FF00308DFF888934FF00005DFF837
:101AD00084A3B042DFF880B334D0DC4A183290429D
:101AE00030D048452ED050452CD058452AD0DA4A1F
:101AF0001832904226D0D84A3032904222D0D64A6C
:101B0000483290421ED0D54A90421BD0D34A183258
:101B1000904217D0D14A3032904213D0CF4A483247
:101B200090420FD0CD4A603290420BD0CB4A7832EF
:101B3000904207D0C94A9032904203D0C74AA83297
:101B400090427DD184F83510B04284F834502ED0C4
:101B5000BE49183188422AD0484528D0504526D061
:101B6000584524D0BC491831884220D0BA49303178
:101B700088421CD0B8494831884218D0B7498842B9
:101B800015D0B6491831884211D0B4493031884255
:101B90000DD0B2494831884209D0B04960318842FD
:101BA00005D0AE497831884201D0AC499031016806
:101BB00021F00101016008E027E100BF01F0D0F849
:101BC000C01B052801D920211CE120680068C0073E
:101BD000F4D104F108002168D4E9053C8E4685C89B
:101BE00009681043D4E907281F43636A38439C4FB0
:101BF00040EA0C001043394040EA0800042B40EA58
:101C0000010003D1D4E90B12114308439549096837
:101C10006FF30F01B1F1005F0FD36168A1F12902E9
:101C2000052A08D9163A032A05D9083A012A02D901
:101C30004F39032901D840F48010CEF8000000E0AD
:101C400023E02068676A4069042F20F0070047EA14
:101C500000070DD1D4E90A01074349B12046FEF738
:101C6000ADFC28B140206065012184F83510CCE03E
:101C7000206847612046FEF7BFFB94F85C203F21B7
:101C800002F01F029140816054E0774A90421BD0DD
:101C9000754B1433984217D0734B2833984213D0A6
:101CA000714B3C3398420FD06F4B503398420BD05E
:101CB0006D4B6433984207D06B4B7833984203D016
:101CC000694B8C3398427DD184F8351084F83450B8
:101CD000664B0168A26801EA030E402A73D0802A8D
:101CE00072D00022D4E90378D4E9053142EAD70260
:101CF00042EAD8085C4AD4E9077C48EAD30848EAB3
:101D0000D10141EAD701524241EA1C11142341EAB0
:101D10000E01016020681044B0FBF3F08000E06524
:101D20002046FEF769FB94F85C20012102F01F02B7
:101D3000914041602068B04257D0444918318842F0
:101D400053D0484551D050454FD058454DD04249C9
:101D50001831884249D040493031884245D03E4907
:101D60004831884241D03D4988423ED03B491831F4
:101D700088423AD039493031884236D037494831E3
:101D8000884232D03549603188422ED0334978318B
:101D900088422AD031499031884226D02F49A83133
:101DA000884222D0304988421FD02F4914318842BE
:101DB0001BD02D492831884217D02B493C3188420D
:101DC00013D002E01DE017E018E0274950318842A7
:101DD0000BD025496431884207D0234978318842A5
:101DE00003D021498C31884229D12046FEF75EFB81
:101DF000A06880280CD00CE0102273E74FF48042DA
:101E000070E74021616584F835800120BDE8F09FCE
:101E10006560216E20790860D4E91901416060682D
:101E2000401E072808D82046FEF78EFBE06E0560AE
:101E3000D4E91C01416002E0E56625676567012081
:101E4000656584F835000020E0E7000010000240DE
:101E5000400002405800024070000240100402405E
:101E60003F8010FE0010005C085402580F00FEFF77
:101E70002DE9F84F04008C464FF00000009014D07C
:101E800094F83400012812D094F835500120002134
:101E900084F83400012D0CD0C00260650120009050
:101EA00084F834100098BDE8F88F0120FBE7022089
:101EB000F9E78C4D0226206884F83560A8428A4DE7
:101EC00061658A4E8A4FDFF82C82DFF82C92DFF8AA
:101ED0002CA2DFF82CB226D0A84224D0B04222D0C7
:101EE000B84220D040451ED048451CD050451AD09D
:101EF000584518D08349884215D082491831884204
:101F000011D08049303188420DD07E494831884215
:101F100009D07C496031884205D07A4978318842BD
:101F200001D078499031016821F0010101606146DA
:101F30002046FEF76DFB6B49206888422CD0A842F2
:101F40002AD0B04228D0B84226D0404524D04845B7
:101F500022D0504520D058451ED06A4A90421BD00E
:101F6000684A1832904217D0664A3032904213D0F5
:101F7000644A483290420FD0624A603290420BD09D
:101F8000604A7832904207D05E4A9032904203D045
:101F90005C4AA83290420CD1026822F01E0242F044
:101FA00016020260206C88B12068026842F00802C4
:101FB0000BE0026822F00E0242F00A020260206C7E
:101FC00020B12068026842F0040202602068884262
:101FD0004BD0A84249D0B04247D0B84245D0404546
:101FE00043D0484541D050453FD058453DD0454A63
:101FF00090423AD0434A1832904236D0414A303269
:10200000904232D03F4A483290422ED03D4A603210
:1020100090422AD03B4A7832904226D0394A9032B8
:10202000904222D0374AA83290421ED0364A90427F
:102030001BD0354A1432904217D0334A283290428E
:1020400013D0314A3C3290420FD02F4A5032904246
:102050000BD02D4A6432904207D02B4A78329042FE
:1020600003D0294A8C3290420DD1206E0268D203EF
:1020700003D5026842F480720260E06E18B1026813
:1020800042F4807202602068884226D0A84224D0A0
:10209000B04222D0B84220D040451ED048451CD086
:1020A00050451AD0584518D01649884215D01549C0
:1020B0001831884211D01349303188420DD011496E
:1020C0004831884209D00F496031884205D00D4916
:1020D0007831884201D00B499031016841F001010B
:1020E0000160DFE61000024028000240400002408C
:1020F000580002407000024088000240A0000240E8
:10210000B8000240100402400854025870B504465A
:1021100000F026FE0546601C02D004480078044406
:1021200000F01EFE401BA042FAD370BD0C0000243C
:1021300010B590F89830012B09D0022B07D0D0F8B9
:102140009C1041F00201C0F89C10012010BD0368F2
:102150009C6D0C4203D1DC6D44F0010404E09C6DE5
:1021600031EA04041FD00324DC658B0505D5036820
:10217000D3F8E0401443C3F8E0404B0505D50368AD
:10218000D3F8E4401443C3F8E4400068084A01EA85
:102190000203446D074A1C434465106840EA91708D
:1021A0001060002010BDDC6D44F00204DCE700008C
:1021B000FFFFCF3F14A8004070B5044690F8980088
:1021C000022804D0D4F89C0040F008000DE02068FC
:1021D000D0F8C03013F07C5F0BD0D0F8C4309B0235
:1021E0000CD5D4F89C0040F40070C4F89C00012089
:1021F00070BDD4F89C0040F02000F6E7D0F8C40091
:10220000C0F3044520462B46FEF710FC2168012050
:10221000A840C1F8D000C4F89400002070BD7047F9
:1022200090F89830012B07D0D0F89C1041F00401B1
:10223000C0F89C100120704761B10068012913D0DB
:10224000D0F8B01021F0FE4141EA0261C0F8B010B0
:10225000002070470068D0F8F01021F07C5141EA6E
:102260000261C0F8F010F3E7D0F8A01021F0FE41B1
:1022700041EA0261C0F8A010EAE770B590F8982032
:10228000012A09D0022A07D0D0F89C1041F002019F
:10229000C0F89C10012070BD0B68CA6883B10B693F
:1022A000072A43EA427325D00C7A4A6942EA8472CB
:1022B0004968006F00EBC100C0E90032002070BD2A
:1022C000072A0DD00C7AD6060D8A4B6943EA847230
:1022D00046EA0543C06E49681A4340F82120EDE7FD
:1022E0000B8A4FF06055D1E9062442EA034245EAE1
:1022F0000423EFE78A69DBE770477047F0B590F891
:1023000098400025022C04D0D0F89C1041F0080120
:102310002BE040294FF0004605D0412929D0046D1B
:102320008C4219D942E00468D4F8A07017F4FE0F6B
:1023300012D0D4F8A4707F0613D0D4F8A470FF0193
:1023400005D5D4F8A070B6EBD77F00D10125D4F81D
:10235000A470466F446C24E0D0F89C1041F020013A
:1023600003E0D0F89C1041F48071C0F89C1001206B
:10237000F0BD0468D4F8B07017F4FE0FECD0D4F8B8
:10238000B4707F06EDD0D4F8B470FF0105D5D4F851
:10239000B070B6EBD77F00D10125D4F8B470866F4A
:1023A000C46CC7F305273D446C4302E0446DC66F1F
:1023B0004C4306EB8404266816F080465660266877
:1023C00036D026F060461660D4F800C000262F4FA5
:1023D0000CF0005CC2F808C0D4F800C00CF0004C4F
:1023E000C2F810C0B4F804C01FFA8CFCC2F81CC0BC
:1023F000D4F804C00CF4702CC2F80CC0D4F804C09B
:102400000CF4801CC2F814C0D4F804C00CF4001CF6
:10241000C2F818C0D4F804C0CCF3066CC2F820C0CF
:10242000D4F804C008344FEADC7CC2F824C008E0C9
:10243000C6F38A46C7E700BF14F806C003F806C013
:10244000761CD2F80CC007EB1C4C9CF800C0B445BD
:10245000F2D840290AD041290CD020294FF001029E
:102460000CD200688A40C0F898200DE00068C0F8DF
:10247000A85009E00068C0F8B85005E0006801F015
:102480001F018A40C0F89C200020F0BDE06F0008CA
:10249000704700002DE9FF5FDFF80CB304460BF135
:1024A0000401DBF8000025680F68AA468007D5F80C
:1024B0005090696DD5F850806E6D2A6DD5F854C076
:1024C0002B6D00EA8770009009F470496F6D286DDC
:1024D00001EA09010191DAF85410DAF85490DAF8B7
:1024E000505008F00F0806EA0806029602F0F002C3
:1024F00003F071536FEA09061F4000F060700CEAA8
:10250000020CCDF80CC0F20501EA00090CD4E84336
:10251000C00509D400214FF48073CAF85030CBF8BD
:1025200000102046FFF7B4FF700512D4E8434005C1
:102530000FD4206800234FF48068D0F8DC20D0F856
:10254000E410C0F85080CBF800301140204600F075
:10255000D9FADFF858A2009850B12268830F00EA38
:102560000A001065CBF8003020460099FFF757FEAF
:10257000019850B12268830F00EA0A001065CBF879
:1025800000302046019900F0BFFA029850B122684D
:10259000830F00EA0A001065CBF80030204602994C
:1025A00000F05EFA039850B12268830F00EA0A0037
:1025B0001065CBF800302046039900F083FA30050F
:1025C0000CD4E843000509D4236800204FF40062CE
:1025D0001A65CBF80000204600F097FAB00512D437
:1025E000E84380050FD4206800234FF40078D0F82A
:1025F000D820D0F8E010C0F85080CBF8003011405F
:10260000204600F080FA30030CD4E843000309D4DC
:10261000236800204FF400221A65CBF80000204602
:1026200000F01CFAF0030CD4E843C00309D423687B
:1026300000204FF480321A65CBF80000204600F0ED
:1026400060FA70030CD4E843400309D422680020E8
:102650004FF480231365CBF80000204600F050FAB9
:10266000B0030FD4E84380030CD4236800204FF458
:1026700000321A65CBF80000D4F89C0040F08000CE
:10268000C4F89C00B9F1000F0BD022684FEA99738F
:1026900009EA0A001065CBF8003049462046FFF7EA
:1026A0002CFE5FB12268BB0F07EA0A001065CBF869
:1026B0000030D4F89C003843C4F89C003C492068A2
:1026C000884268D1606881468068800763D0D9F805
:1026D0002060D9F82410D9F82080D9F82400D9F83E
:1026E00020C0D9F82470D9F82030D9F82450D9F86E
:1026F000202003F4FC4306F00F0AD9F824601D40A3
:10270000D9F824B008F030080CF4C07C02F4F022B0
:1027100011EA0A0100EA080807EA0C0706EA0206BD
:10272000D9F820A004D0C9F82010204600F0E5F91F
:10273000B8F1000005D0616808624146204600F00B
:10274000DEF96FEA0B0040060ED46FEA0A0040067D
:102750000AD460684021C36BC26B01622046190C29
:1027600002F03F0200F0CAF92FB1606807623946F3
:10277000204600F0C1F935B160680562D4F89C00CC
:102780002843C4F89C0036B160680662D4F89C0007
:102790003043C4F89C00D4F89C00002802D02046A6
:1027A000FFF7AAFDBDE8FF9F10A80040FFFFCF3F45
:1027B00000A000402DE9F04194B08D494C22044620
:1027C0006846FDF7B6FD64B18A4D2068A84202D183
:1027D00000F58070606094F898004FF0000820B118
:1027E00008E0012014B0BDE8F081204684F899800B
:1027F00000F002F92068816921F01001816100F088
:10280000AFFA0327064604E000F0AAFA801B0A2864
:1028100011D8206880690007F6D42068816941F0EA
:102820000101816100F09CFA06460DE000F098FA83
:10283000801B0A2808D9D4F89C0040F00100C4F895
:102840009C0084F89870CCE720688069C007EDD0C0
:102850002068816941F002018161207C01282068A3
:10286000816937D041F040018161607C0128206896
:10287000816932D021F480418161A07C01282068E7
:1028800081692DD041F4805181612068A2688169FD
:1028900021F44071114381612068816921F0A40114
:1028A00081612068016921F010010161E06801285F
:1028B00019D010B302281BD02068816941F0800133
:1028C00081612068016941F010010161E06803281D
:1028D0000ED012E021F04001C6E741F48041CBE781
:1028E00021F48051D0E72068816941F0040103E0C0
:1028F0002068816941F020018161207E6FF0FF0234
:10290000D4E90773A68A1102400602EB0727A0F15B
:102910000070384327685B1E184301EB06463043BE
:10292000F861A068B0F5407F11D104F12800A68CB1
:102930006FF00F0C89C801EB0641401E02EB032229
:10294000104322680CEB071318430843D060206E35
:1029500030B12068626ED0F8C0101143C0F8C010CA
:10296000D4E917126846D14209D02168A36E51F804
:10297000C82F50F8233022F007021A430A60216C56
:1029800049B12168626C51F8BC3F50F8226023F0D5
:10299000070232430A60A16C51B12168E36C51F81F
:1029A000BC2F50F8233022F0700242EA03120A6072
:1029B000216D51B12168626D51F8BC3F50F8220081
:1029C00023F4E06242EA002008602068A84204D1B3
:1029D0006068816821F003018160C4F8948001215E
:1029E000C4F89C8084F898102046FDF73BFFF9E678
:1029F000F06F000800A0004010B586B00446142116
:102A00006846FDF7AFFC1249206888421ED1114884
:102A1000016841F480710160006800F480700590E5
:102A20000C480C38016841F0020101600068022185
:102A3000002200F002000590032309244FF44050C7
:102A40008DE81F000448694600F060F806B010BD2C
:102A500000A40040EC4402580004025870470000F3
:102A600010B504461248844220D188071ED5114B68
:102A70004021114A2046FFF741FC28B90022204698
:102A80000221FFF755FB08B1FDF7D4FE0A480B49B8
:102A900002688A420AD14068B0F1804F06D1BDE891
:102AA0001040044A0649024804F08CBA10BD0000E8
:102AB0007C000024000000241C010024D1D33E0C23
:102AC00038000024704790F89810012907D0D0F8FA
:102AD0009C1041F00401C0F89C10012070470221B5
:102AE00080F89810002201688B6923F001038B6144
:102AF000C0F89C2010467047704770477047704779
:102B00007047704770477047704770472DE9F84F1E
:102B100003247D4D00234FF001094FF0B04B4FF0DF
:102B20000F0AE9E009FA03F73A4076D00E7906F089
:102B30000306012E01D0022E18D1D0F808C04FEAAA
:102B4000430ECE6804FA0EF82CEA080C06FA0EF6CC
:102B500046EA0C068660D0F804C00E792CEA070C11
:102B6000C6F300169E4046EA0C0646600E79F64310
:102B7000B6070BD0C6684FEA43088F6804FA08FC12
:102B800026EA0C0607FA08F73743C7600E7906F005
:102B90000306022E12D1DE080F694FEA437C00EBD8
:102BA0008606B646366A4FEADC6C0AFA0CF807FA73
:102BB0000CF726EA08063743CEF820700F7906682E
:102BC0004FEA430807F0030704FA08FC07FA08F77E
:102BD00026EA0C06374307604E6816F4403F1CD0C7
:102BE0004A4E376847F00207376036689F0706F09D
:102BF0000206009623F0030606F1B046B6463F0FE4
:102C0000D6F80864DFF808810AFA07FC404526EA8E
:102C10000C0603D14FF0000C41E06CE0DFF8F4C08B
:102C2000604502D14FF0010C39E0DFF8ECC060459F
:102C300002D14FF0020C32E0DFF8E0C0604502D173
:102C40004FF0030C2BE0DFF8D8C0604502D14FF005
:102C5000040C24E0DFF8CCC0604502D14FF0050C35
:102C60001DE0DFF8C4C0604502D14FF0060C16E04D
:102C7000DFF8B8C0604502D14FF0070C0FE0DFF875
:102C8000B0C0604502D14FF0080C08E0DFF8A4C0E6
:102C9000604502D14FF0090C01E04FF00A0C0CFA2C
:102CA00007FC4CEA060CCEF808C44F68DBF800605D
:102CB000FF0226EA020600D516435F46CBF8006005
:102CC000D1F804C0DBF804605FEA8C2C26EA020627
:102CD00000D516437E606E684F6826EA0206BF0381
:102CE00000D516436E602E684F6826EA0206FF0381
:102CF00000D516432E605B1C0A6832FA03F67FF497
:102D000011AFBDE8F88F000080000058F44402586D
:102D1000000002580004025800080258000C025833
:102D2000001002580014025800180258001C0258E3
:102D30000020025800240258426921EA02030A4096
:102D400043EA0241816170470AB181617047090419
:102D5000FBE7000001480068000C70470010005CB1
:102D600001488068704700000C0000240248816818
:102D700002781144816070470C000024032010B5D4
:102D800000F0D6F801F0BAF80F4A10491468136839
:102D9000C4F3032203F00F038A5CC95C02F01F0234
:102DA00001F01F01D0400A4A20FA01F111600949DF
:102DB0000860002000F010F808B1012010BD00F0FC
:102DC00079F8002010BD0000184402586470000813
:102DD0001C0000241800002470B50D4D044628780E
:102DE000A0B14FF47A71B1FBF0F00A490968B1FB68
:102DF000F0F001F0F9FE48B9102C07D2002221466C
:102E0000501E00F075F800206C6070BD012070BD90
:102E10000C00002418000024F0B5154C4378211D47
:102E20000A1D23600378F3B143680B60057BC67A03
:102E3000817A437B2D07847B45EA0665C77B90F842
:102E400009C0067A90F800E045EAC14040EA8340B4
:102E500040EA444040EA074040EA0C2040EA46008D
:102E600040EA0E0001E0002008601060F0BD0000A4
:102E700098ED00E0BFF35F8F044800210368034A28
:102E800023F48033036070321160704724ED00E05A
:102E9000074A40F00100064970321060086840F4AB
:102EA00080300860BFF34F8FBFF36F8F7047000013
:102EB00024ED00E0064882B0016841F002010160A3
:102EC000006800F002000090052002B000F030B869
:102ED000F4440258002809DB410900F01F02890070
:102EE000012001F1E0219040C1F80001704700008D
:102EF0000E4BF0B41B680D46C3F30223C3F1070663
:102F0000042E00D90426191D072901D2002300E050
:102F1000DB1E012404FA06F19C40491E2940641E70
:102F2000994014402143F0BC03F0A0BD0CED00E03B
:102F3000064900F0070210B54FF6FF040868044B7D
:102F4000204040EA02201843086010BD0CED00E06C
:102F50000000FA05134970B50A68D243520705D537
:102F6000096801F00701814213D118E00A6822F0D4
:102F7000070202430A60FFF7F3FE0A4D4FF47A7628
:102F80000446083D07E000BFFFF7EAFE001BB04221
:102F900001D9012070BD2868C0438004F4D400200A
:102FA00070BD00000C48025810B500F061FF0549E3
:102FB0000968054AC1F30211515C01F01F01C840C4
:102FC00010BD00002044025864700008494930B523
:102FD000484C0B1D0A68143409681D68246802F007
:102FE0000303C5F30012C1F30531C4F3CC04002977
:102FF00014FB02F200EE102AF8EE400A75D03F4AA8
:103000009FED3D1AB7EE000A6BB1DFED3D1A012BC3
:1030100001D0022B64D002EE101A1168F8EE422A99
:1030200081EEA22A21E0334C283C23689B0612D56E
:10303000344B246801EE901A1168C4F3C104F8EE11
:10304000612AE34001EE903AC1F30801F8EE611AFB
:1030500081EEA22A0BE001EE901ADFED2B2A00BFD1
:10306000F8EE611A116882EEA12AC1F3080101EE9F
:10307000901A1168F8EE611A40EE811A71EE800A1A
:1030800062EE200AC1F3462101EE101AB8EE411A91
:1030900031EE001AC0EE811ABCEEE11A80ED001A82
:1030A0001168C1F3064101EE101AB8EE411A31EE73
:1030B000001AC0EE811ABCEEE11A80ED011A116807
:1030C000C1F3066101EE101AB8EE411A31EE000AA2
:1030D00080EE801ABCEEC10A80ED020A30BD04E029
:1030E00001EE901ADFED092ABAE700210160416084
:1030F0008160F3E728440258000000393844025840
:103100000024744A0090D0030024744C001B374BF9
:10311000494930B5484C0B1D0A681C3409681D68C4
:10312000246802F00303C5F30022C1F30551C4F380
:10313000CC04002914FB02F200EE102AF8EE400A3B
:1031400075D03F4A9FED3D1AB7EE000A6BB1DFED37
:103150003D1A012B01D0022B64D002EE101A116827
:10316000F8EE422A81EEA22A21E0334C283C236863
:103170009B0612D5344B246801EE901A1168C4F3F3
:10318000C104F8EE612AE34001EE903AC1F3080170
:10319000F8EE611A81EEA22A0BE001EE901ADFED43
:1031A0002B2A00BFF8EE611A116882EEA12AC1F342
:1031B000080101EE901A1168F8EE611A40EE811ACA
:1031C00071EE800A62EE200AC1F3462101EE101A68
:1031D000B8EE411A31EE001AC0EE811ABCEEE11AC7
:1031E00080ED001A1168C1F3064101EE101AB8EE25
:1031F000411A31EE001AC0EE811ABCEEE11A80EDE0
:10320000011A1168C1F3066101EE101AB8EE411AF5
:1032100031EE000A80EE801ABCEEC10A80ED020A8F
:1032200030BD04E001EE901ADFED092ABAE7002173
:10323000016041608160F3E72844025800000039D2
:10324000404402580024744A0090D0030024744C77
:10325000001B374B2DE9FE4F0546DFF8E48350F89D
:10326000081B0024F64FC943019005F128002646AB
:1032700008F12408009008011DD4A86E50B1B0F5E3
:10328000801F0CD0B0F5001F0ED0B0F5401F1ED02F
:1032900001240FE0386840F40030386017E00198EE
:1032A000022102F0A5FC03E00098022102F030FDAB
:1032B00004000CD026462888C043C00523D4A86D3E
:1032C00005281ED2DFE800F00C11161B1B00AA6EA9
:1032D000D8F8001021F440111143C8F80010EAE7B3
:1032E000386840F40030386009E00198002102F0AD
:1032F0007FFC03E00098002102F00AFD044674B14F
:1033000000E0012426462888C043800528D4E86DC3
:1033100080281ED00CDC90B140280ED114E0AA6D9C
:10332000D8F8001021F007011143C8F80010EAE7AF
:10333000C02813D0B0F5807F10D001240FE038688A
:1033400040F40030386009E00198002102F050FCA0
:1033500003E00098002102F0DBFC04469CB1264605
:103360002888DFF8DC92C04309F12C0940052CD4F1
:10337000D5F8A800B0F5800F20D00DDCA0B1B0F5D5
:10338000001F0FD115E0EA6DD8F8001021F4E071AC
:103390001143C8F80010E3E7B0F5C00F13D0B0F543
:1033A000000F10D001240FE0386840F4003038607E
:1033B00009E00198002102F01BFC03E000980021C5
:1033C00002F0A6FC04467CB126462888C0430005CE
:1033D0002DD4D5F8AC00B0F1007F21D00EDCA8B11F
:1033E000B0F1807F10D116E0D5F8A820D9F80010F0
:1033F00021F460011143C9F80010E6E7B0F1407F05
:1034000013D0B0F1806F10D001240FE0386840F481
:103410000030386009E00198002102F0E9FB03E088
:103420000098002102F074FC044674B12646286816
:10343000C04380011FD4E86CD8B110280FD02028D9
:1034400012D0302815D0012414E0D5F8AC20D9F8DA
:10345000001021F0E0611143C9F80010E7E7386877
:1034600040F40030386004E00198022102F0C0FB13
:10347000044674B126462888C043C0042BD4286E65
:10348000B0F5005F20D00DDCA0B1B0F5805F0FD1AA
:1034900015E06B48EA6C2030016821F030011143DF
:1034A0000160E8E7B0F5405F13D0B0F5804F10D071
:1034B00001240FE0386840F40030386009E00198DA
:1034C000002102F095FB03E00098002102F020FCAF
:1034D00004468CB126462888C043800429D4686EEF
:1034E000B0F5403F23D010DC08B3B0F5803F14D0D6
:1034F000B0F5003F0FD115E02A6ED8F8001021F486
:10350000E0411143C8F80010E5E7B0F5802F0ED078
:10351000B0F5A02F0BD001240AE00198012102F0A0
:1035200067FB03E00098012102F0F2FB044694B12E
:1035300026462888C04340042AD4D5F8B000B0F10C
:10354000405F23D010DC08B3B0F1805F14D0B0F13D
:10355000005F0FD115E06A6ED8F8001021F4E02169
:103560001143C8F80010E4E7B0F1804F0ED0B0F17D
:10357000A04F0BD001240AE00198012102F038FB92
:1035800003E00098012102F0C3FB044674B1264613
:103590002888C04300041FD4286FD8B1B0F1805FE1
:1035A0000ED0B0F1005F10D0012414E0D5F8B020A7
:1035B000D9F8001021F0E0411143C9F80010E7E705
:1035C000386840F40030386004E00198012102F0CE
:1035D0000FFB044674B126462868C043C0011ED4C0
:1035E000A86CD0B101280ED0022811D0032814D025
:1035F000012413E02A6FD8F8001021F04051114344
:10360000C8F80010E8E7386840F40030386004E09B
:103610000198022102F0ECFA0446ACB12646286873
:10362000DFF81CB0C043ABF11C0B400252D405487C
:10363000016841F480710160FFF792FB824611E05E
:103640002C44025800480258FA48AA6C016821F03C
:10365000030111430160E2E7FFF782FBA0EB0A00E0
:10366000642835D8F4480068C005F5D58CBBDFF870
:10367000C4A3B5F8B4100AF1240ADAF8000001F482
:10368000407100F44070884211D0DAF80010DAF886
:10369000002021F4407142F48032CAF80020DAF8A8
:1036A000002022F48032CAF80020CAF80010D5F8B1
:1036B000B400B0F5807F1AD1FFF752FB029012E000
:1036C000FFF74EFB0299411A41F2883081420AD934
:1036D000032426462878DFF85CA3C0430AF1080AD1
:1036E000C00721D03CE0DAF800008007E8D5D5F823
:1036F000B410C1F30120032858460DD0016821F40D
:103700007C510160B5F8B420DAF80010C2F30B0266
:103710001143CAF80010DDE7C84A036802EA111233
:1037200023F47C511143ECE7E86F182816D005DC30
:10373000A0B1082808D0102804D10AE020280DD014
:1037400028280BD001240AE00198012102F050FA48
:1037500003E00098012102F0DBFA044664B126463A
:103760002878C04380071ED4A86F062819D2DFE846
:1037700000F0160C11161616EA6FDAF8001021F098
:1037800038011143CAF80010EAE70198012102F05C
:103790002FFA03E00098012102F0BAFA04467CB146
:1037A00000E0012426462878C04340071FD4D5F8FE
:1037B0009400062819D2DFE800F0160C1116161630
:1037C000AA6FDAF8001021F007011143CAF80010BF
:1037D000E9E70198012102F00BFA03E000980121CA
:1037E00002F096FA0446A4B100E0012426462878A7
:1037F000C04380062BD4D5F89000B0F1405F24D0B0
:1038000011DC10B3B0F1805F15D0B0F1005F10D1C2
:1038100016E0D5F89420D9F8001021F007011143E3
:10382000C9F80010E3E7B0F1804F0ED0B0F1A04F1F
:103830000BD001240AE00198002102F0D9F903E03D
:103840000098022102F064FA044694B126462878D2
:10385000C04340062BD4D5F89C00B0F5406F24D06F
:1038600011DC10B3B0F5806F15D0B0F5006F10D13A
:1038700016E0D5F89020DAF8001021F0E04111436D
:10388000CAF80010E3E7B0F5805F0ED0B0F5A05F96
:103890000BD001240AE00198002102F0A9F903E00D
:1038A0000098022102F034FA044694B126462878A2
:1038B000C04300062BD4D5F8A000B0F5C04F24D0EB
:1038C00011DC10B3B0F5005F15D0B0F5804F10D10A
:1038D00016E0D5F89C20D9F8001021F4E0511143EE
:1038E000C9F80010E3E7B0F5004F0ED0B0F5204F57
:1038F0000BD001240AE00198002102F079F903E0DD
:103900000098022102F004FA044654B126462878B1
:10391000C04300071ED4D5F88400B0F5805F0AD0FC
:103920000FE0D5F8A020D9F8001021F46041114330
:10393000C9F80010EBE70098022102F0E9F900B1A4
:103940000126D5F88420DAF8001021F44051114303
:10395000CAF800102878C043C00613D4D5F89800E0
:10396000B0F5807F05D10098022102F0D1F900B1B5
:103970000126D5F89820D9F8001021F440711143A0
:10398000C9F800102868C043000316D4D5F8A40075
:1039900038B1B0F5803F09D0B0F5003F0BD001241D
:1039A0000AE00198002102F023F903E000980221C7
:1039B00002F0AEF904468CB126462868C0434003A5
:1039C00022D4D5F88800B0F5801F11D0B0F5001FC3
:1039D00013D0B0F5401F15D0012414E0D5F8A42071
:1039E000D9F8001021F440311143C9F80010E4E780
:1039F000386840F40030386004E00098012102F09B
:103A000087F904465CB126462868C043C00323D426
:103A1000286DA8B1B0F5803F17D001241BE0D5F880
:103A20008820DAF8001021F440111143CAF8001080
:103A3000EAE700004C44025800480258CFFFFF005C
:103A4000386840F40030386004E00198022102F048
:103A5000CFF80446E4B126462868C043800005D468
:103A60000098022102F054F900B101262868C043F1
:103A700080031BD4D5F88000B0B1B0F5807F0FD0A3
:103A8000B0F5007F10D0B0F5407F0DD001240CE0E0
:103A90005A482A6D016821F4803111430160DBE747
:103AA000386840F400303860ECB326462868C043DC
:103AB000C00207D46A6FD8F8001021F0004111430A
:103AC000C8F800102868C043C00008D4D5F8B82052
:103AD000DBF8001021F480411143CBF80010286876
:103AE000C043800207D4EA6ED8F8001021F080713C
:103AF0001143C8F800102868C04340000CD4DBF81C
:103B0000001021F40041CBF80010DBF80010D5F8CC
:103B1000BC201143CBF800102868C04308D43748B4
:103B20006A6D016800E018E021F040511143016026
:103B30002868C043000208D4D5F88C20DAF80010B9
:103B400021F440011143CAF8001028790024C04331
:103B500000F0010020430AD00FE0D5F88020DAF809
:103B6000001021F440711143CAF800109EE701983B
:103B7000002102F03DF800B106462879C04300F06C
:103B80000200204305D10198012102F031F800B173
:103B900006462879C04300F00400204305D101986F
:103BA000022102F025F800B106462879C04300F052
:103BB0000800204305D10098002102F0A9F800B1C7
:103BC00006462879C04300F01000204305D1009834
:103BD000012102F09DF800B106462879C04300F0AB
:103BE0002000044304D10098022102F091F800B9AA
:103BF00016B10120BDE8FE8F0020FBE74C440258BF
:103C0000704700002DE9F05F04000F467ED0DFF81A
:103C10003882D8F8000000F00F00B8420CD2D8F873
:103C2000001021F00F013943C8F80010D8F8000047
:103C300000F00F00B84269D12078844D40070AD5C2
:103C40002069296801F07001884204D9296821F0AF
:103C500070010143296020787C4E361D00070AD58B
:103C60006069316801F07001884204D9316821F03F
:103C70007001014331602078C0060AD5A06931681F
:103C800001F4E061884204D9316821F4E061014324
:103C900031602078DFF8B4B180060BF1080B0CD549
:103CA000E1695846DBF8002002F07002914204D925
:103CB000026822F070020A430260207880070AD569
:103CC000E068296801F00F01884204D9296821F0D1
:103CD0000F01014329602078C0073ED05B49A268EC
:103CE0002868183920F47060104328606068022842
:103CF00018D0032819D00968012819D049070029CC
:103D00004ADADFF848A1AAF1080A00E044E0DAF84C
:103D1000002022F007020243CAF80020FFF720F833
:103D2000814612E009688903E9E709688901E6E745
:103D3000C905E4E7FFF714F8A0EB090141F2883068
:103D4000814202D90320BDE8F09F6168DAF80000E3
:103D500000F03800B0EBC10FECD1207880070AD515
:103D6000E068296801F00F01884204D2296821F037
:103D70000F0101432960D8F80010404601F00F01FF
:103D8000B9420BD9016821F00F0139430160006885
:103D900000F00F00B84201D00120D4E7207840079E
:103DA0000AD52069296801F07001884204D2296887
:103DB00021F0700101432960207800070AD560696D
:103DC000316801F07001884204D2316821F070013D
:103DD000014331602078C0060AD5A069316801F43A
:103DE000E061884204D2316821F4E061014331602E
:103DF000207880060CD5E1695846DBF8002002F0F7
:103E00007002914204D2026822F070020A430260FA
:103E100000F074F80E492A682B68C2F3032203F0FD
:103E20000F038A5CC95C02F01F0201F01F01D04041
:103E3000084A20FA01F11160074908600748006844
:103E4000BDE8F05FFEF7C8BF0020005218440258DA
:103E5000647000081C0000241800002410000024D6
:103E60000248016841F40021016070470044025893
:103E700030B500F043F80B4A0B490C4B1568146839
:103E8000C5F3032204F00F048A5C095D02F01F02EF
:103E900001F01F01D040064A20FA01F119601060BC
:103EA000084630BD18440258647000081C00002405
:103EB0001800002400B5FFF7DBFF05490968054A33
:103EC000C1F30211515C01F01F01C84000BD0000A8
:103ED0001C4402586470000800B5FFF7C9FF05498B
:103EE0000968054AC1F30221515C01F01F01C84075
:103EF00000BD00001C44025864700008454970B5BC
:103F000045480968434B103B11F0380208D00111B5
:103F1000082A03D0102A0BD0182A0BD0084670BDEF
:103F200019688906FBD51968C1F3C101C84070BD85
:103F30003A4870BD3749374D18310C1D24350A6891
:103F4000096826682D6802F0030406F00102C1F337
:103F50000511C5F3CC0515FB02F200EE102AB8EEF0
:103F6000400AE9B32F4ADFED2E0AB7EE001A6CB112
:103F7000DFED2D1A012C01D0022C43D002EE101AD5
:103F80001068F8EE422A81EEA22A1EE01C68A40600
:103F900011D51B6801EE901A1168C3F3C103F8EE46
:103FA000612AD84001EE900AC1F30800F8EE611AC8
:103FB00081EEA22A0BE001EE901ADFED1C2A00BF71
:103FC000F8EE611A106882EEA12AC0F3080001EE33
:103FD000900AF8EE611A40EE201A31EE810A00E0F4
:103FE00015E022EE000A1068C0F34620401C00EEE7
:103FF000900AF8EE600A80EE201ABCEEC10A10EEBC
:10400000100A70BD01EE901ADFED092AD8E70020F2
:1040100070BD0000104402580090D003001BB70090
:1040200000000039304402580024744A0024744CC3
:10403000001B374B064810B50068400506D5FFF752
:10404000DFFD03494FF48060091D086010BD0000CA
:10405000644402582DE9F05F04007DD0FF4F2078C2
:10406000FE4D1837DFF8F493103DC00748D0D9F85B
:104070000000396800F03800102815D0182803D146
:1040800001F0030002280FD06068B0F5803F12D025
:1040900010B1B0F5A02F18D0286820F48030286027
:1040A000286820F4802009E02868800328D560680B
:1040B0000028D2D024E0286840F48030286060686E
:1040C00088B1FEF74DFE064609E0286840F48020DE
:1040D0002860F0E7FEF744FE801B64286FD828684C
:1040E0008003F7D50CE0FEF73BFE064605E000BF77
:1040F000FEF736FE801B6428F0D828688003F7D4CA
:10410000207841F20308D54E0C3E800769D5D9F8D6
:104110000000396810F038000ED0182801D1880747
:104120000AD0E06890B3296821F0190101432960A1
:10413000FEF716FE824631E02868400702D5E068A7
:1041400000288AD0E168286820F019000843286018
:10415000FEF706FE824607E0DFE000BFFEF700FE46
:10416000A0EB0A000228B9D828684007F6D500BF9E
:10417000FEF7F0FD40451BD82069402812D0316879
:1041800021F47C3141EA003030602AE018E000BFC1
:10419000FEF7E6FDA0EB0A0002289FD8286840073A
:1041A000F6D5E5E7306820F47C3040F40030EBE7EA
:1041B000207C316821F0FE4141EA0060E4E70DE136
:1041C000286820F001002860FEF7CAFD824605E05D
:1041D000FEF7C6FDA0EB0A0002288DD8286840072C
:1041E000F6D42078C0065DD5D9F80000DFF86CB2AF
:1041F000396800F03800ABF1040B082810D01828FB
:1042000003D101F0030001280AD0E06900282868E2
:1042100038D040F080002860FEF7A2FD824623E0FF
:104220002868C00523D5E069802876D11FE0206A80
:10423000202821D0316821F0F84141EA80603060C7
:1042400030E000BF94F82010DBF8002022F07C5210
:1042500042EA0161CBF8001024E000BFFEF780FDC8
:10426000A0EB0A00022898D82868C005F6D5FEF70A
:1042700071FD4045E6D8DAE7306820F0F84040F0BC
:104280008040DCE720F080002860FEF769FD0646EC
:1042900005E000BFFEF764FD801B02289DD828685A
:1042A000C005F7D42078000729D56C4861696430CF
:1042B00000298046016811D041F001010160FEF73C
:1042C0004FFD064605E000BFFEF74AFD801B0228B1
:1042D000C9D8D8F800008007F6D510E021F0010118
:1042E0000160FEF73DFD064605E000BFFEF738FD24
:1042F000801B022872D8D8F800008007F6D42078F6
:10430000800623D5A0690028286810D040F480508A
:104310002860FEF725FD064605E036E1FEF720FDA4
:10432000801B02285AD828688004F7D50EE020F4B4
:1043300080502860FEF714FD064604E0FEF710FDED
:10434000801B02284AD828688004F7D420784007C8
:104350004FD5DFF80C81D8F8001041F48071C8F80F
:104360000010FEF7FDFC064605E000BFFEF7F8FC76
:10437000801B642832D8D8F80000C005F6D5374E27
:10438000A068603601280AD008B1052813D030682B
:1043900020F001003060306820F0040002E0306856
:1043A00040F001003060A06841F2883A90B1FEF719
:1043B000D7FC80460AE0306840F004003060EEE749
:1043C000FEF7CEFCA0EB0801514507D83068800706
:1043D000F6D50EE0FEF7C4FC804607E084E000BF9F
:1043E000FEF7BEFCA0EB080151457DD83068800780
:1043F000F6D4606AB0B3DFF86480D9F8001008F131
:1044000020084FF6F87B08F10409C1F3C201032923
:10441000A8F1040A69D00228286820F0807028607A
:1044200003D0FEF79DFC044684E0FEF799FC0646A7
:1044300005E000BFFEF794FC801B022877D82868AF
:104440008001F7D4E26A40F2F331386854F8283F2B
:10445000884340EA02101843386004E010440258D0
:1044600000480258B5E0217B434622894FF4FE0CF8
:10447000208A4FF0FE474902267D521E401EA1F5BC
:104480000071C2F308088AB2761E0CEA004042EAC4
:1044900008020243504607EA06610A431A60DAF846
:1044A000002022F00102CAF80020D9F80020266A74
:1044B00022EA0B0242EAC602C9F80020DAF800102C
:1044C000A26921F00C011143CAF800100168E269E9
:1044D00021F0020111430160016841F48031016063
:1044E000016841F4003101E021E027E0016001684A
:1044F00041F480210160016841F0010101602868F8
:1045000040F080702860FEF72BFC044605E000BFF9
:10451000FEF726FC001B022809D828688001F7D581
:1045200057E000BFFEF71CFC001B022802D9032045
:10453000BDE8F09F28688001F4D44AE0396801287A
:10454000D8F8000021D0A26A01F0030393421CD1E5
:10455000E26AC1F305118A4217D1216BC0F3080248
:10456000491E8A4211D1616BC0F34622491E914215
:104570000BD1A16BC0F30642491E914205D1E16BFC
:10458000C0F30660491E814201D00120D0E7A16C32
:104590004E46D9F80000C0F3CC00814219D0DAF8B9
:1045A0000000554620F00100CAF80000FEF7D8FBD5
:1045B0004FEA0007FEF7D4FBB842FBD0A26C30688C
:1045C00020EA0B0040EAC2003060286840F0010099
:1045D00028600020ACE700002DE9F047040029D056
:1045E000594A4FF000092068584B594D9042C4F881
:1045F000289006D0984204D0A84202D0E1680F2942
:1046000018D8E1684FF0010AE76B0831C9080AEBD6
:1046100057167143904205D0984203D0A84201D06A
:10462000082907D8904203D0984201D0A84204D16B
:10463000102902D90120BDE8F08794F8810020B943
:10464000204684F8809000F085F8022084F88100EC
:104650002068016821F0010101602068A169826879
:10466000B1F1806F02F4F81110D16268B2F5800FD9
:1046700001D01AB10AE0A26B22B107E0A26BB2F13D
:10468000805F03D1026842F4805202606068400299
:1046900009D5E068072806D32068236D026822F454
:1046A00080721A4303E02068026822F4807202607C
:1046B000A66AE069E26B25683043E3680A43104369
:1046C0001843A860D4E90D02D4E90581636A25691D
:1046D0001843D4F820C00A43266810432843A56D28
:1046E000D4E90172D4E9123140EA080040EA0C0032
:1046F00038430843104318432843F060606868B9A2
:104700002068816821F4C05141F400618160206813
:10471000816821F4C06141F4806181602068016D8D
:1047200021F0010101656068400206D52068626DD4
:10473000C16821F000411143C160C4F8849084F83D
:1047400081A0002077E700000030014000380040E1
:10475000003C004010B586B0044614216846FBF7C3
:1047600001FE1349206888421FD11248016841F4B4
:1047700000510160006800F4005005900D481038A9
:10478000016841F01001016000680523642100F018
:10479000100005900020009102226946CDE9012019
:1047A000CDE903030448FEF7B1F906B010BD0000DF
:1047B00000340140F0440258001002582DE9F05F27
:1047C0008A4690F8801098461646012904464FF014
:1047D000000B0CD0012784F88070FEF7C1FA8146E7
:1047E00094F881000025012804D0022034E0022042
:1047F000BDE8F09FBAF1000F2DD066B3A168042088
:10480000C4F864A0A4F8686084F88100C4F88450F7
:10481000A4F86A60E565A4F86050A4F86250B1F5A8
:10482000C02F25676567206819D0C16821F4C021B1
:1048300041F48021C160206841686FF30F0131436A
:1048400041602068016841F0010101606068B0F5D5
:10485000800F09D00DE0012084F88050C8E701687E
:1048600021F400610160E6E72068016841F400710D
:104870000160E0680F2822D948F20806B4F86A00FF
:1048800080B32068416931420BD0006B616E0860D3
:10489000606E001D6066B4F86A00401EA4F86A00ED
:1048A000ECE7FEF75DFAA0EB0901414503D3B8F14F
:1048B000FF3FE3D057E0B8F1000FDFD153E0072806
:1048C0001ED840E020684169C9070CD0008E616E97
:1048D0000880606E801C6066B4F86A00401EA4F810
:1048E0006A000DE033E0FEF73BFAA0EB0901414519
:1048F00003D3B8F1FF3F03D035E0B8F1000F32D059
:10490000B4F86A000028DDD121E020684169C907B8
:104910000CD090F83000616E0870606E401C6066CC
:10492000B4F86A00401EA4F86A000CE0FEF718FA1A
:10493000A0EB0901414503D3B8F1FF3F03D012E0DA
:10494000B8F1000F0FD0B4F86A000028DDD120467E
:1049500001F06EFA84F88170D4F8840084F88050F5
:1049600080B1012044E7204601F062FAD4F88400C7
:1049700084F8805040F48070C4F8840084F881701A
:10498000032035E7584633E72DE9F84F8A4690F87B
:10499000801099461746012904464FF0000B0DD0B0
:1049A0004FF0010884F88080FEF7DAF9064694F8A3
:1049B00081000025012804D0022034E00220BDE857
:1049C000F88FBAF1000F2DD067B3A1680320C4F8A7
:1049D0005CA0A4F8607084F88100C4F88450A4F846
:1049E00062706566A4F86850A4F86A50B1F5C02FEB
:1049F00065672567206819D0C16821F4C02141F49A
:104A00000031C160206841686FF30F013943416094
:104A10002068016841F0010101606068B0F5800F15
:104A200009D00DE0012084F88050C8E7016841F406
:104A300000610160E6E72068016841F400710160EF
:104A4000E0680F281CD82EE02068416989070BD543
:104A5000E16D09680162E06D001DE065B4F8620077
:104A6000401EA4F862000BE0FEF77AF9811B49456D
:104A700003D3B9F1FF3F03D007E0B9F1000F04D031
:104A8000B4F862000028DFD183E0204601F0D0F9BD
:104A9000D4F8841084F8805041F48071C4F88410F4
:104AA00084F881809CE007282CD86EE0206841695A
:104AB00089071BD5B4F8621001290BD9E16B49B104
:104AC000E16D09680162E06D001DE065B4F8620007
:104AD000801E08E0E16D09880184E06D801CE065BE
:104AE000B4F86200401EA4F862000BE0FEF738F94B
:104AF000811B494503D3B9F1FF3F03D0C5E7B9F1A5
:104B0000000FC2D0B4F862000028CFD141E0206885
:104B1000416989072DD5B4F8621003290CD9E16BDE
:104B2000402909D9E16D09680162E06D001DE06569
:104B3000B4F86200001F19E0B4F8621001290BD923
:104B4000E16B49B1E16D09880184E06D801CE0658D
:104B5000B4F86200801E09E0E16D097880F8201049
:104B6000E06D401CE065B4F86200401EA4F86200ED
:104B70000BE0FEF7F5F8811B494503D3B9F1FF3F80
:104B800003D020E0B9F1000F1DD0B4F86200002876
:104B9000BDD100224B4608212046009601F0A6F91F
:104BA00028B1D4F8840040F02000C4F884002046E6
:104BB00001F03EF984F88180D4F8840084F88050B4
:104BC00080B10120FBE6204601F032F9D4F88400E0
:104BD00084F8805040F48070C4F8840084F88180A8
:104BE0000320ECE65846EAE6401EB0F1807F10B59F
:104BF00001D3012010BD4FF0E02460610F21601748
:104C000001F034FF0020A0610721216110BD704731
:104C100070477047F0B590F83C20012A3BD01F4EFA
:104C2000012480F83C40022280F83D2002681C4D9F
:104C30005368B242D2F808C001D0AA4203D14F68EB
:104C400023F470033B430F6823F070031F43576046
:104C50000268B24213D0B2F1804F10D0114B9A4289
:104C60000DD0114B9A420AD0104B9A4207D0AA425B
:104C700005D00F4B9A4202D00E4B9A4204D189685C
:104C80002CF0800319439160002180F83D4080F8AA
:104C90003C100846F0BD0220F0BD000000000140BD
:104CA000000401400004004000080040000C0040E7
:104CB000001800400040014010B5040003D094F8F3
:104CC0003D0010B107E0012010BD002084F83C0039
:104CD000204600F023F8022084F83D002068211DC2
:104CE00001F0F4F9012084F8480084F83E0084F8CB
:104CF0003F0084F8400084F8410084F8420084F8C2
:104D0000430084F8440084F8450084F8460084F8A1
:104D1000470084F83D00002010BD000008B5006881
:104D20000649884208D10648016841F00201016045
:104D3000006800F00200009008BD00000004004080
:104D4000E844025890F83D10012901D00120704735
:104D5000174A022180F83D100168CB6843F0010337
:104D6000CB600068904214D0B0F1804F11D011494F
:104D700088420ED0104988420BD01049884208D092
:104D80000F49884205D00F49884202D00E49884217
:104D900007D181680D4A1140062906D0B1F5803F40
:104DA00003D0016841F0010101600020704700005C
:104DB000000001400004004000080040000C0040DA
:104DC00000040140001800400040014007000100BD
:104DD00070B5044690F83C000025012814D03A4BE9
:104DE000012684F83C60022084F83D002268906827
:104DF000184020F47F409060086870282FD010DCA5
:104E000010F00F0F03D022E04FF0020070BD4FEA08
:104E10002012072A1BD2DFE802F0535353534B39B9
:104E20004100B0F1101F4BD009DCB0F5805F0FD00E
:104E3000B0F5005F1ED0B0F5801F08D140E0A0F5AE
:104E4000801120393CD010293AD0202938D00125B2
:104E500084F83D60002084F83C00284670BD4A6814
:104E60002068D1E9021301F093F92068816841F0CC
:104E7000770109E04A682068D1E9021301F088F956
:104E80002068816841F480418160E1E7CA6849682F
:104E9000206801F091F92068502106E0CA6849684D
:104EA000206801F09AF92068602101F07BF9CFE7D2
:104EB000CA684968206801F07FF920684021F4E75A
:104EC000226801461046F0E788FFCEFF704770B5B4
:104ED0000446006800250169C943890715D4C168E3
:104EE000C943890711D4EA1E026101212177206894
:104EF00080698007204602D0FFF7E8FF04E000F059
:104F0000A7F8204600F0A5F8257720680169C94375
:104F1000490717D4C168C943490713D402216FF068
:104F20000402026121772068806910F4407F2046E6
:104F300002D0FFF7CBFF04E000F08AF8204600F033
:104F400088F8257720680169C943090716D4C16824
:104F5000C943090712D404216FF0080202612177C6
:104F60002068C0698007204602D0FFF7AFFF04E049
:104F700000F06EF8204600F06CF825772068016993
:104F8000C943C90617D4C168C943C90613D4082147
:104F90006FF01002026121772068C06910F4407F31
:104FA000204602D0FFF792FF04E000F051F82046BF
:104FB00000F04FF8257720680169C943C90708D177
:104FC000C168C943C90704D1891E0161204600F0A8
:104FD00041F820680169C943090609D4C168C94379
:104FE000090605D46FF0800101612046FFF710FE2D
:104FF00020680169C943C90509D4C168C9430906C4
:1050000005D46FF4807101612046FFF700FE20682F
:105010000169C943490609D4C168C943490605D491
:105020006FF040010161204600F015F82068016929
:10503000C94389060BD4C168C943890607D46FF0F8
:10504000200101612046BDE87040FFF7E2BD70BD60
:10505000704770477047704730B590F88410012949
:1050600018D0012280F884202421C0F88810002262
:10507000202401680B680D6823F0005325F001051A
:105080000D60426601680B60C0F8884080F884209B
:10509000104630BD022030BD7047704770B50446E1
:1050A00090F8840001281DD0012284F88420242057
:1050B000C4F8880020680568026822F001020260D6
:1050C0002068826822F060620A438260204601F014
:1050D000ABF82268202100201560C4F8881084F8FD
:1050E000840070BD022070BD70B5044690F8840045
:1050F00001281DD0012284F884202420C4F88800CF
:1051000020680568026822F0010202602068826857
:1051100022F060420A438260204601F085F822684E
:10512000202100201560C4F8881084F8840070BD28
:10513000022070BD7047704770B501680446D0F812
:1051400088001025D4F88C608968090618D52128B4
:1051500016D12068083050E8001F21F0800140E897
:105160000012002AF5D1E06F38B1FBF737FE20B10D
:10517000E06FFCF725F9202823D0204601F0DCF968
:105180002068806840061AD5222E18D12068083081
:1051900050E8001F21F0400140E80012002AF5D13C
:1051A000D4F8800040B1FBF719FE28B1D4F8800094
:1051B000FCF706F9202804D0204601F093F90020DE
:1051C00070BDC4F89050032070BD704710B52B49D6
:1051D00004460068884250D12046FFF7ADFFD4F85E
:1051E000800027490068884238D025491831884214
:1051F00034D023493031884230D021494831884267
:105200002CD01F496031884228D01D49783188420E
:1052100024D01B499031884220D01949A8318842B6
:105220001CD01849884219D016491831884215D027
:1052300014493031884211D01249483188420DD08A
:1052400010496031884209D00E497831884205D032
:105250000C499031884201D00A49A83140680122A6
:10526000C0F1C801084801704270C8220749BDE872
:105270001040A1F5C27000F07BBA10BD007800406C
:105280001000024010040240080000249C03002487
:105290002DE9F04107680025044640F60F03022679
:1052A000F8693968BA6818420AD183067ED501F0D8
:1052B000200302F0805C53EA0C0377D0616F74E145
:1052C000CF4BDFF840C3134001EA0C0C53EA0C0C3F
:1052D0006CD05FEAC07C0CD05FEAC15C09D54FF0AE
:1052E000010CC7F820C0D4F8907047F00107C4F84B
:1052F0009070870709D5D70707D027683E62D4F892
:10530000906046F00406C4F8906046070AD5D607B8
:1053100008D0276804263E62D4F8906046F0020662
:10532000C4F8906006070CD501F020061E4308D093
:10533000266808233362D4F8903043F00803C4F899
:10534000903003050BD54B0109D526684FF4006357
:105350003362D4F8903043F02003C4F89030D4F88E
:105360009030002B3DD0800609D501F0200002F0DE
:105370008051084303D0616F09B1204688472168F6
:10538000D4F890008968490602D410F0280F2AD07A
:10539000204601F0A7F82068806840061ED52068E6
:1053A000083050E8001F21F0400100E021E040E813
:1053B0000012002AF3D1D4F8800078B19249016537
:1053C000D4F88000FBF7BAFE00280AD0D4F8800099
:1053D000016D00E02046BDE8F04108472046FFF798
:1053E000F4FEBDE8F0812046FFF7EFFEC4F89050D0
:1053F000F7E7D4F86CC02023BCF1010F7ED15FEA3F
:10540000C06C7BD55FEAC16C78D51020386220680B
:105410008068400673D5D4F880107C4A08689042B2
:1054200034D07A4A1832904230D0784A30329042A2
:105430002CD0764A4832904228D0744A603290424A
:1054400024D0724A7832904220D0704A90329042F2
:105450001CD06E4AA832904218D06D4A904215D0A6
:105460006B4A1832904211D0694A303290420DD0C6
:10547000674A4832904209D0654A6032904205D06E
:10548000634A7832904201D0614A90324068000409
:10549000000CA6D0B4F85C208242A2D9A4F85E0029
:1054A000C869B0F5807F2FD0216851E8000F20F443
:1054B000807041E80002002AF6D12068083050E8E8
:1054C000001F21F0010140E80012002AF5D12068F8
:1054D000083050E8001F21F0400140E80012002A87
:1054E000F5D1C4F88C30E566216851E8000F20F052
:1054F000100041E80002002AF6D101E040E00BE094
:10550000D4F88000FBF76AFC2667B4F85C00B4F8B6
:105510005E10401A81B22FE0B4F85C00B4F85E105F
:10552000B4F85E20401A81B2002AB2D00029B0D06F
:10553000226852E8000F20F4907042E80007002F24
:10554000F6D1344F206800F1080050E8002F02EA3D
:10555000070240E8002CBCF1000FF3D1C4F88C30F6
:10556000E5666567206850E8002F22F0100240E8E9
:105570000023002BF6D126672046FFF78DFD30E78C
:10558000C60209D5560207D54FF48010386220466E
:10559000BDE8F041FFF7CFBD06060AD501F0800651
:1055A00002F40002164304D0A16F00297FF412AF69
:1055B00017E7420611D54A060FD52046026852E881
:1055C000001F21F0400142E80014002CF6D1C0F881
:1055D0008830856700F04AF903E7020206D54A00E1
:1055E00004D52046BDE8F041FFF7A4BDC001C6D5F3
:1055F0000029C4DA2046BDE8F041FFF74EBD0000A7
:105600000100001020010004DF63000810000240C8
:1056100010040240FEFFFFEF10B5040003D0D4F8E1
:10562000880010B107E0012010BD002084F884003C
:10563000204600F027F82420C4F88800206801687C
:1056400021F001010160204600F08EFF0128EBD01F
:10565000A06A10B1204600F009FE2068416821F4DC
:10566000904141602068816821F02A0181602068B2
:10567000016841F0010101602046BDE8104000F0E2
:1056800059BE00002DE9F04786B006461421684651
:10569000FAF768FE3149306888425CD130480168C9
:1056A00041F080410160006800F0804005902C4886
:1056B0000838016841F010010160006803270024E8
:1056C00000F010000590F8010221072204928DE8F5
:1056D000930024486946FDF719FADFF88C804FF4EF
:1056E0008069224B4F2540464FF0040AC8F800302D
:1056F000C0E90154C0E90349C8F81440C8F818408B
:10570000C8F81C40C0E9084AC8E90A74C8F8304023
:10571000FCF7CCF908B1FBF78DF8134D5021134B72
:1057200040227835C6F880801833C8F8386008C53C
:10573000281F85E816022C616C61AC61C5E9074A37
:10574000C5E90974EC622D1FFCF7B0F908B1FBF74D
:1057500071F8F567AE6306B0BDE8F08700780040E9
:10576000E844025800100258AC0200241000024025
:1057700030B4D0F88C30202B02D0022030BC7047DF
:10578000A9B1A2B10B4D00240368C466AB420BD093
:105790005B681B0208D5046854E8003F43F080634F
:1057A00044E80035002DF6D130BC01F0B3B801203B
:1057B000E4E70000000C0058704770472DE9F843FB
:1057C0000446D0F88800984616460D46202802D098
:1057D0000220BDE8F883A5B19EB10021C4F8901065
:1057E0002120C4F888001834FDF7BAFA814654F82D
:1057F000100CA687E6872027183CB0F5805F02D002
:1058000003E00120E5E7206910B12E46002510E0F5
:1058100000260EE08021204601F0D0F8C0B9DEB1AC
:1058200016F8010B21688862B4F85600401EA4F8EF
:105830005600B4F856004B464FF00002CDF80080F9
:105840000028E7D14FF04001204601F0B7F848B1F9
:10585000C4F888700320BCE735F8020B2168C0F358
:105860000800E0E7C4F888700020B2E77047FEE760
:1058700000B589B024216846FAF774FD0E490D4839
:1058800008600846FBF72AFA08B1FAF7D3FF0020B0
:10589000049002210122CDE90001CDE90202024675
:1058A00005486946FBF768F9002801D0FAF7C2FFFE
:1058B00009B000BD0074004024000024054808B56C
:1058C000016841F001010160006800F001000090F2
:1058D00008BD0000D8440258324808222DE9F041A2
:1058E0002F4E002484601F2706600A26C4604FF0F4
:1058F000020804740F234474012584740421C0F841
:105900001480C0E90627C0E90826C0E90C24C0E9D4
:105910000A5338302026102280E87000C0E90314B2
:10592000C0E90514C0E90714C0E90942C0E90B4108
:105930003838FCF73FFF08B1FAF77CFF1A496FF0DF
:10594000604718488A074438D312CE07C0E902439B
:10595000C0E9046400F124038461C4610462C0E905
:1059600000125F614430C3E9035183E81401194612
:10597000FCF783FC01220B481146FCF751FC094857
:1059800000220221FCF7D4FB0648FDF79CF8002812
:1059900003D0BDE8F041FAF74DBFBDE8F08100004B
:1059A00000A400407C000024D1D33E0C2DE9F0433C
:1059B00087B014216846FAF7D5FC2748016841F002
:1059C00010010160016801F010010591016841F0CA
:1059D00080010160016801F080010591016841F0DA
:1059E00001010160016801F001010591016841F0C8
:1059F0000201016000680122DFF86080082100F0E8
:105A0000020005904046FDF79FF9DFF85490002210
:105A10000C214846FDF798F90024694608260096AF
:105A20000125404602270397CDE90154FDF76EF8A2
:105A300004200090CDE90154694648460394FDF7DF
:105A400065F80397694600964846CDE90154FDF78D
:105A50005DF807B0BDE8F083E0440258001002583A
:105A60000000025870B5144807234FF48004114D0C
:105A700000212201C0E902130161C0E90512C161E0
:105A8000016241628162C16241638163C1630164F9
:105A900041648164C164016541658165C0E9005468
:105AA000FEF79AFD002803D0BDE87040FAF7C2BEA9
:105AB00070BD0000003401404401002430B587B0BF
:105AC0001A480024184944F61F6200948025019466
:105AD00053100294039404940594069480E81600ED
